:0400000030EF01F0EC
:06000800588229ED0CF006
:100018005880D8CF21F0E8CF22F0E0CF23F0FACFF4
:1000280024F0FBCF25F0D9CF26F0DACF27F0F0BCAB
:1000380020EF00F022EF00F02BEF00F0F0A027EF08
:1000480000F029EF00F02BEF00F003EC22F0F0BEF7
:1000580030EF00F032EF00F03BEF00F0F0A237EFA6
:1000680000F039EF00F03BEF00F001EC22F0F1B0C6
:1000780040EF00F042EF00F058EF00F0F2A047EF39
:1000880000F049EF00F058EF00F081380F0B010B3A
:100098004E18D8B452EF00F054EF00F058EF00F0CB
:1000A800010E4E1AFFEC21F0F1B05DEF00F05FEFAA
:1000B80000F076EF00F0F2A064EF00F066EF00F0D9
:1000C80076EF00F08138E842070B010B4D18D8B4E1
:1000D80070EF00F072EF00F076EF00F0010E4D1AAD
:1000E800FDEC21F0F1B07BEF00F07DEF00F094EF34
:1000F80000F0F2A082EF00F084EF00F094EF00F03F
:100108008144E846030B010B4C18D8B48EEF00F07D
:1001180090EF00F094EF00F0010E4C1AFBEC21F088
:10012800F1B099EF00F09BEF00F0B0EF00F0F2A013
:10013800A0EF00F0A2EF00F0B0EF00F08144010B57
:100148004B18D8B4AAEF00F0ACEF00F0B0EF00F015
:10015800010E4B1AF9EC21F09FBCB5EF00F0B7EF98
:1001680000F0C0EF00F09EACBCEF00F0BEEF00F076
:10017800C0EF00F005EC22F0F1B4C5EF00F0C7EFD6
:1001880000F0D0EF00F0F2A4CCEF00F0CEEF00F0DA
:10019800D0EF00F0DCEC21F09FB0D5EF00F0D7EF06
:1001A80000F0E0EF00F09EA0DCEF00F0DEEF00F0E2
:1001B800E0EF00F0E0EC20F09FB2E5EF00F0E7EFB1
:1001C80000F0F0EF00F09EA2ECEF00F0EEEF00F090
:1001D800F0EF00F0F3EC21F0A2B2F5EF00F0F7EF4A
:1001E80000F000EF01F0A1A2FCEF00F0FEEF00F03C
:1001F80000EF01F0D6EC21F09FB405EF01F007EF16
:1002080001F010EF01F09EA40CEF01F00EEF01F0E9
:1002180010EF01F02DEC21F0A2B015EF01F017EF6F
:1002280001F020EF01F0A1A01CEF01F01EEF01F09A
:1002380020EF01F016EC21F027C0DAFF26C0D9FF25
:1002480025C0FBFF24C0FAFF23C0E0FF22C0E8FF5F
:0C02580021C0D8FF58901000CEEF1CF021
:10100000003738392F3435362A3132332D23303DED
:101010002B4672657175656E63793A20312D3E31CC
:10102000303030487A0044757479204379636C65B8
:101030003A20362D3E3933250020202020205075BF
:101040006C7365204D65746572200020202020207F
:10105000466F722041636375726163790020447545
:101060007479204379636C65203D200020467265C9
:101070007175656E6379203D2000487A202020003C
:0910800025202020002569000054
:10108A0000019551800B9E6F95519525A46F94AFE1
:10109A0051EF08F053EF08F054EF08F0A481A4517F
:1010AA00D8B45AEF08F05CEF08F06FEF08F0A42903
:1010BA00D8A462EF08F064EF08F06CEF08F0000EB5
:1010CA00926F000E936F000E946F000E956F948FBF
:1010DA0077EF08F0000E926F000E936F000E946F78
:1010EA00000E956F9951800B9E1B995199259F6F00
:1010FA0098AF82EF08F084EF08F085EF08F09F813F
:10110A009F51D8B48BEF08F08DEF08F0A0EF08F0EC
:10111A009F29D8A493EF08F095EF08F09DEF08F007
:10112A00000E966F000E976F000E986F000E996F63
:10113A00988FA8EF08F0000E966F000E976F000EBA
:10114A00986F000E996F9F51D8B4AEEF08F0B0EFC8
:10115A0008F0B8EF08F0A451D8A4B6EF08F0B8EF39
:10116A0008F0C2EF08F0000E926F000E936F000EA7
:10117A00946F000E956F5AEF0AF098519203F3CFCD
:10118A00A9F0F4CFAAF0A951A06FA16BA26BA36B2F
:10119A00AA51A56FA66BA76BA86B97519303F3CFC0
:1011AA00A9F0F4CFAAF0A951A027000EA123A223E7
:1011BA00A323AA51A527000EA623A723A823965145
:1011CA009403F3CFA9F0F4CFAAF0A951A027000EF7
:1011DA00A123A223A323AA51A527000EA623A7234E
:1011EA00A823A2C0A3F0A1C0A2F0A0C0A1F0A06B46
:1011FA0096519303F3CFA9F0F4CFAAF0A951A027EF
:10120A00AA51A123000EA223000EA32397519203F1
:10121A00F3CFA9F0F4CFAAF0A951A027AA51A1238C
:10122A00000EA223000EA323A2C0A3F0A1C0A2F025
:10123A00A0C0A1F0A06B96519203F3CFA9F0F4CF0E
:10124A00AAF0A951A027AA51A123000EA223000E99
:10125A00A32398519303F3CFA9F0F4CFAAF0A9518D
:10126A00A527AA51A623000EA723000EA82397514B
:10127A009403F3CFA9F0F4CFAAF0A951A527AA5154
:10128A00A623000EA723000EA82398519403F3CF98
:10129A00A9F0F4CFAAF0A9519A6FAA519B6F9C6B3F
:1012AA009D6B9CC09DF09BC09CF09AC09BF09A6B72
:1012BA009A51A5279B51A6239C51A7239D51A82348
:1012CA00A0C09AF0A1C09BF0A2C09CF0A3C09DF060
:1012DA00190E75EF09F0D8909D339C339B339A33DE
:1012EA00E82E70EF09F09A51A5279B51A6239C512D
:1012FA00A7239D51A823A2C0A3F0A1C0A2F0A0C019
:10130A00A1F0A06B9F51A4C09AF09B6B9A27000E84
:10131A009B23820E9A25A96FFF0E9B21AA6FABEF22
:10132A0009F0D890A537A637A737A837A3AFA0EFFB
:10133A0009F0A2EF09F0A3EF09F0A581D890A03730
:10134A00A137A237A337A907D8A0AA07A7AFB0EF3A
:10135A0009F0B2EF09F096EF09F0000E9F6FA3AF04
:10136A00B9EF09F0BBEF09F0DFEF09F0FF0EA015A6
:10137A009A6FFF0EA1159B6FFF0EA2159C6F7F0E31
:10138A00A3159D6F9A519B119C119D11D8B4D0EF52
:10139A0009F0D2EF09F0D6EF09F0010E9F6FDFEFE7
:1013AA0009F0A5A1DBEF09F0DDEF09F0DFEF09F0A5
:1013BA00D2EF09F09F51D8B4E5EF09F0E7EF09F051
:1013CA000BEF0AF0010EA527000EA623A723A823D8
:1013DA00A8A1F2EF09F0F4EF09F00BEF0AF0A5C0AB
:1013EA009AF0A6C09BF0A7C09CF0A8C09DF09D35BE
:1013FA009D339C339B339A339AC0A5F09BC0A6F0C9
:10140A009CC0A7F09DC0A8F0A94BAA2BAABF16EFB3
:10141A000AF0AA5108E1A929D8A016EF0AF018EF94
:10142A000AF022EF0AF0000EA56F000EA66F800EDA
:10143A00A76F7F0EA86F50EF0AF0AABF2FEF0AF02E
:10144A00AA5106E1A905D8B02DEF0AF02FEF0AF04C
:10145A003BEF0AF0000EA56F000EA66F000EA76FF5
:10146A00000EA86F000E9E6F50EF0AF0A9C0A4F0FC
:10147A00FF0EA517FF0EA6177F0EA717000EA817B7
:10148A00A4A14AEF0AF04CEF0AF04DEF0AF0A78F39
:10149A00D890A431A86F9E51A813A5C092F0A6C0F7
:1014AA0093F0A7C094F0A8C095F012000001AE51C5
:1014BA00800BBB6FAE51AE25C26FADAF67EF0AF0BE
:1014CA0069EF0AF06AEF0AF0C281C251D8B470EF2C
:1014DA000AF072EF0AF087EF0AF0C229D8A478EF6F
:1014EA000AF07AEF0AF082EF0AF0000EAB6F000EF4
:1014FA00AC6F000EAD6F000EAE6FAD8F000EAE6F0B
:10150A008FEF0AF0000EAB6F000EAC6F000EAD6FDE
:10151A00000EAE6FB251800BBB1BB251B225C36F26
:10152A00B1AF9AEF0AF09CEF0AF09DEF0AF0C3817F
:10153A00C351D8B4A3EF0AF0A5EF0AF0BAEF0AF044
:10154A00C329D8A4ABEF0AF0ADEF0AF0B5EF0AF061
:10155A00000EAF6F000EB06F000EB16F000EB26FCB
:10156A00B18F000EB26FC2EF0AF0000EAF6F000E1D
:10157A00B06F000EB16F000EB26FAF51B011B11162
:10158A00B211D8A4CBEF0AF0CDEF0AF0E5EF0AF0DA
:10159A00000EAB6F000EAC6F000EAD6F000EAE6F9B
:1015AA00800EAD137F0EAE13BB51AE13ABC0ABF0C2
:1015BA00ACC0ACF0ADC0ADF0AEC0AEF028EF0CF0F0
:1015CA00C251D8A4EBEF0AF0EDEF0AF0F7EF0AF0F8
:1015DA00000EAB6F000EAC6F000EAD6F000EAE6F5B
:1015EA0028EF0CF0C351C2C0B3F0B46BB35F000E66
:1015FA00B45B7F0EB325BC6F000EB421BD6FABC0C8
:10160A00B7F0ACC0B8F0ADC0B9F0AEC0BAF0000ED9
:10161A00AB6F000EAC6F000EAD6F000EAE6F000E1A
:10162A00BE6F000EBF6F000EC06F000EC16F000EBE
:10163A00C36F58EF0BF0C351D8B426EF0BF028EF65
:10164A000BF03FEF0BF0D890B737B837B937BA3746
:10165A00D890AB37AC37AD37AE37C1AF37EF0BF0F9
:10166A0039EF0BF03AEF0BF0AB81D890BE37BF37AA
:10167A00C037C137AF51B75DB051B859B151B95937
:10168A00B251BA59D8A04CEF0BF04EEF0BF057EF0E
:10169A000BF0C18DAF51B75FB051B85BB151B95BB7
:1016AA00B251BA5BC32B190EC3655EEF0BF060EF44
:1016BA000BF020EF0BF0B751B811B911BA11D8B429
:1016CA0069EF0BF06BEF0BF083EF0BF0BE8183EF4A
:1016DA000BF0D890AB37AC37AD37AE37C1AF78EF38
:1016EA000BF07AEF0BF07BEF0BF0AB81D890BE37A3
:1016FA00BF37C037C137BC07D8A0BD07ADAF88EF29
:10170A000BF08AEF0BF06EEF0BF0000EC36FC1AF58
:10171A0091EF0BF093EF0BF0B7EF0BF0FF0EBE1546
:10172A00B36FFF0EBF15B46FFF0EC015B56F7F0EF6
:10173A00C115B66FB351B411B511B611D8B4A8EF2B
:10174A000BF0AAEF0BF0AEEF0BF0010EC36FB7EF81
:10175A000BF0ABA1B3EF0BF0B5EF0BF0B7EF0BF05B
:10176A00AAEF0BF0C351D8B4BDEF0BF0BFEF0BF0EB
:10177A00E3EF0BF0010EAB27000EAC23AD23AE2333
:10178A00AEA1CAEF0BF0CCEF0BF0E3EF0BF0ABC05E
:10179A00B3F0ACC0B4F0ADC0B5F0AEC0B6F0B6357B
:1017AA00B633B533B433B333B3C0ABF0B4C0ACF073
:1017BA00B5C0ADF0B6C0AEF0BC4BBD2BBDBFEEEFB1
:1017CA000BF0BD5108E1BC29D8A0EEEF0BF0F0EF09
:1017DA000BF0FBEF0BF0000EBD6FBC69000EAB6F98
:1017EA00000EAC6F000EAD6F000EAE6FBDBF08EFFE
:1017FA000CF0BD5106E1BC05D8B006EF0CF008EFBD
:10180A000CF016EF0CF0000EBD6F000EBC6F000E50
:10181A00AB6F000EAC6F000EAD6F000EAE6F000E18
:10182A00BB6FBCC0C2F0C2A11DEF0CF01FEF0CF0E1
:10183A0022EF0CF0AD8F23EF0CF0AD9FD890C231A0
:10184A00AE6FD9EF0AF012000600FACF0FF0FBCF05
:10185A0010F0D9CF11F0DACF12F0F2A837EF0CF06E
:10186A0039EF0CF042EF0CF0F2A23EEF0CF040EF31
:10187A000CF042EF0CF017EC22F0F0AC47EF0CF052
:10188A0049EF0CF052EF0CF0F0A04EEF0CF050EFD5
:10189A000CF052EF0CF013EC22F0F0AE57EF0CF014
:1018AA0059EF0CF062EF0CF0F0A25EEF0CF060EF73
:1018BA000CF062EF0CF011EC22F0F1A067EF0CF0E3
:1018CA0069EF0CF07FEF0CF0F2A06EEF0CF070EF06
:1018DA000CF07FEF0CF081380F0B010B4E18D8B4C7
:1018EA0079EF0CF07BEF0CF07FEF0CF0010E4E1A43
:1018FA000FEC22F0F1A084EF0CF086EF0CF09DEFD4
:10190A000CF0F2A08BEF0CF08DEF0CF09DEF0CF0C9
:10191A008138E842070B010B4D18D8B497EF0CF049
:10192A0099EF0CF09DEF0CF0010E4D1A0DEC22F020
:10193A00F1A0A2EF0CF0A4EF0CF0BBEF0CF0F2A0B8
:10194A00A9EF0CF0ABEF0CF0BBEF0CF08144E846CA
:10195A00030B010B4C18D8B4B5EF0CF0B7EF0CF031
:10196A00BBEF0CF0010E4C1A0BEC22F0F1A0C0EF09
:10197A000CF0C2EF0CF0D7EF0CF0F2A0C7EF0CF0AE
:10198A00C9EF0CF0D7EF0CF08144010B4B18D8B417
:10199A00D1EF0CF0D3EF0CF0D7EF0CF0010E4B1A8D
:1019AA0009EC22F09FACDCEF0CF0DEEF0CF0E7EF75
:1019BA000CF09EACE3EF0CF0E5EF0CF0E7EF0CF067
:1019CA0015EC22F0F1A4ECEF0CF0EEEF0CF0F7EFCF
:1019DA000CF0F2A4F3EF0CF0F5EF0CF0F7EF0CF0CB
:1019EA00E8EC21F09FA0FCEF0CF0FEEF0CF007EF03
:1019FA000DF09EA003EF0DF005EF0DF007EF0DF0CF
:101A0A00FBEC20F09FA20CEF0DF00EEF0DF017EF9C
:101A1A000DF09EA213EF0DF015EF0DF017EF0DF07C
:101A2A00F6EC21F0A2A21CEF0DF01EEF0DF027EF4D
:101A3A000DF0A1A223EF0DF025EF0DF027EF0DF029
:101A4A00E2EC21F09FA42CEF0DF02EEF0DF037EF12
:101A5A000DF09EA433EF0DF035EF0DF037EF0DF0DA
:101A6A005BEC21F0A2A03CEF0DF03EEF0DF047EF4A
:101A7A000DF0A1A043EF0DF045EF0DF047EF0DF08B
:101A8A0044EC21F012C0DAFF11C0D9FF10C0FBFFED
:101A9A000FC0FAFF58921100000E0101736F030E76
:101AAA000001D619D8A45CEF0DF05EEF0DF041EFFE
:101ABA000EF0E551DD5D846FE651DE59856FE75121
:101ACA00DF59866FE851E059876F000E42EC0EF03D
:101ADA0084C0AFF085C0B0F086C0B1F087C0B2F064
:101AEA00000E0001966F000E976FC80E986F420E97
:101AFA00996FE551E15D846FE651E259856FE751CF
:101B0A00E359866FE851E459876F000E42EC0EF0F4
:101B1A0084C092F085C093F086C094F087C095F097
:101B2A0045EC08F092C0ABF093C0ACF094C0ADF0B5
:101B3A0095C0AEF05BEC0AF0ABC05EF1ACC05FF1F1
:101B4A00ADC060F1AEC061F15EEC16F001015E510C
:101B5A00736F000E0001966F000E976F800E986FDC
:101B6A00400E996FE551DD5D2C6EE651DE592D6E02
:101B7A00E751DF592E6EE851E0592F6E01016A5183
:101B8A00286E296A2A6A2B6A71EC1FF028C084F031
:101B9A0029C085F02AC086F02BC087F0000E42ECDF
:101BAA000EF084C092F085C093F086C094F087C08E
:101BBA0095F045EC08F092C0AFF093C0B0F094C035
:101BCA00B1F095C0B2F0000E0001966F240E976F27
:101BDA00740E986F490E996F66C184F067C185F0DB
:101BEA0068C186F069C187F0000E42EC0EF084C02D
:101BFA0092F085C093F086C094F087C095F045ECCA
:101C0A0008F092C0ABF093C0ACF094C0ADF095C0B0
:101C1A00AEF05BEC0AF0ABC05EF1ACC05FF1ADC0F8
:101C2A0060F1AEC061F15EEC16F05EC16FF15FC1AA
:101C3A0070F160C171F161C172F16BC1D9FF6CC100
:101C4A00DAFF6FC1DEFF70C1DEFF71C1DEFF72C154
:101C5A00DEFF6DC1D9FF6EC1DAFF73C1DFFFD70E98
:101C6A00286E000E296E000E2B6E000E2A6E9CEC5A
:101C7A0021F0000E0001D66F120000018C6F0001E6
:101C8A008C51D8B44BEF0EF04DEF0EF06FEF0EF013
:101C9A0087BF54EF0EF052EF0EF06FEF0EF084C0D4
:101CAA0088F085C089F086C08AF087C08BF0881FCB
:101CBA00891F8A1F8B1F882B000E89238A238B2357
:101CCA0088C08EF089C08FF08AC090F08BC091F0E6
:101CDA0077EF0EF084C08EF085C08FF086C090F04A
:101CEA0087C091F08451851186118711D8A480EF9D
:101CFA000EF082EF0EF08CEF0EF0000E846F000EE5
:101D0A00856F000E866F000E876F1DEF0FF0960E1F
:101D1A008D6F96EF0EF08D2BD890913390338F33D1
:101D2A008E33000E8E15886F000E8F15896F000E88
:101D3A0090158A6FFE0E91158B6F885189118A1141
:101D4A008B11D8A4ABEF0EF0ADEF0EF090EF0EF0C2
:101D5A00BBEF0EF08D2B010E8E27000E8F239023E2
:101D6A009123D890913390338F338E33000E8E1592
:101D7A00886F000E8F15896F000E90158A6FFF0EFF
:101D8A0091158B6F885189118A118B11D8A4D0EFC4
:101D9A000EF0D2EF0EF0AFEF0EF0DAEF0EF08D0785
:101DAA00D8908E378F379037913790BFDFEF0EF08C
:101DBA00E1EF0EF0E9EF0EF0020E8D61E7EF0EF0A3
:101DCA00E9EF0EF0D4EF0EF08DB1EEEF0EF0F0EF7A
:101DDA000EF0F1EF0EF0909FD8908D338DC088F001
:101DEA00896B8A6B8B6B88C08BF08A6B896B886B6B
:101DFA0088518E1389518F138A5190138B519113E5
:101E0A008C51D8B40BEF0FF00DEF0FF015EF0FF068
:101E1A0087BF14EF0FF012EF0FF015EF0FF0918F4D
:101E2A008EC084F08FC085F090C086F091C087F094
:101E3A001200000195BF24EF0FF027EF0FF0010EFB
:101E4A0028EF0FF0000E9C6F9C51D8B42FEF0FF0C3
:101E5A0031EF0FF035EF0FF0946D951FD8B0952B39
:101E6A00C9BF3CEF0FF03AEF0FF042EF0FF0000E50
:101E7A00996F010E986F46EF0FF0C8C098F0C9C06D
:101E8A0099F0C6C09AF0C7C09BF09C51D8B450EFE5
:101E9A000FF052EF0FF069EF0FF09A07D8A09B07E7
:101EAA009C51D8A45BEF0FF05DEF0FF063EF0FF0DA
:101EBA00000E976F2B0E966F67EF0FF0000E976F5D
:101ECA002D0E966F96C09CF0000E9E6F1F0E9D6F92
:101EDA00000E0101436FA3EF0FF09D07D8A09E07E4
:101EEA00240E9D25D96E010E9E21DA6E94C028F02B
:101EFA0095C029F0000E2B6E0A0E2A6EAAEC1AF073
:101F0A0028C02EF029C02FF0A1EC20F02E50300F5F
:101F1A00DF6E00019807D8A099079A07D8A09B07F7
:101F2A0094C028F095C029F0000E2B6E0A0E2A6E76
:101F3A0093EC19F028C094F029C095F000019EBFD7
:101F4A00AFEF0FF09E5108E19D05D8A0AFEF0FF05B
:101F5A00B1EF0FF0C7EF0FF094519511D8A4B8EF75
:101F6A000FF0BAEF0FF072EF0FF099BFC7EF0FF053
:101F7A00995106E19805D8B0C5EF0FF0C7EF0FF0F9
:101F8A0072EF0FF09C51D8B4CDEF0FF0CFEF0FF0F6
:101F9A00DAEF0FF09D07D8A09E07240E9D25D96E73
:101FAA00010E9E21DA6E9CC0DFFF92C087F093C0BB
:101FBA0088F0240E9D25896F010E9E218A6F9AC092
:101FCA008BF09BC08CF00AEC1EF0120028C082F045
:101FDA0029C083F02C502D10D8A4F6EF0FF0F8EF9B
:101FEA000FF0FAEF0FF0A6EF10F082C0D9FF83C00E
:101FFA00DAFF2AC0DFFF2C50000182252E6E2D50F9
:10200A0083212F6EFF0E2E24D96EFF0E2F20DA6E3B
:10201A002AC0DFFF2D5007E1030E2C5CD8B018EF61
:10202A0010F01AEF10F01CEF10F0A6EF10F020EEEF
:10203A0001F08251D9268351DA222AC0DFFF20EE2D
:10204A0002F08251D9268351DA222AC0DFFF2C50AE
:10205A0082252E6E2D5083212F6EFE0E2E24D96ED0
:10206A00FF0E2F20DA6E2AC0DFFF2C5082252E6E3B
:10207A002D5083212F6EFD0E2E24D96EFF0E2F2098
:10208A00DA6E2AC0DFFF2D5007E1070E2C5CD8B0AC
:10209A0051EF10F053EF10F055EF10F0A6EF10F0DB
:1020AA0020EE03F08251D9268351DA222AC0DFFFBB
:1020BA002C5082252E6E2D5083212F6EFC0E2E243D
:1020CA00D96EFF0E2F20DA6E2AC0DFFF2D5007E1EE
:1020DA00090E2C5CD8B074EF10F076EF10F078EFA0
:1020EA0010F0A6EF10F082C02EF083C02FF02E1E43
:1020FA002F1E2E4A2F2A030E2E14806F816B8051B9
:10210A0082278151832380512C5E81512D5AFC0EE6
:10211A002C16FF0E2D169DEF10F082C0D9FF83C03A
:10212A00DAFF2AC0DFFF2C06D8A02D06824B832BAC
:10213A002C502D10D8A4A4EF10F0A6EF10F092EFB7
:10214A0010F01200000E01016C6F000E6B6F6651E9
:10215A006711D8A4B3EF10F0B5EF10F0B7EF10F095
:10216A005AEF11F0000E0001AF6F000EB06FC80EEB
:10217A00B16F420EB26F010168510001846F856B25
:10218A00866B876B010E42EC0EF084C0ABF085C003
:10219A00ACF086C0ADF087C0AEF05BEC0AF0ABC025
:1021AA0096F0ACC097F0ADC098F0AEC099F0CB50A5
:1021BA000101696F6A6BD89069376A37D8906937B5
:1021CA006A37040E6927000E6A2369C184F06AC15E
:1021DA0085F00001000E85BFFF0E866F876F010E26
:1021EA0042EC0EF084C092F085C093F086C094F061
:1021FA0087C095F045EC08F092C05EF193C05FF19C
:10220A0094C060F195C061F15EEC16F05EC16BF1AD
:10221A005FC16CF1010120EE01F06651D9266751C8
:10222A00DA22DF50D8A41CEF11F01EEF11F036EFBE
:10223A0011F06BC169F1030E6917693BBD50691949
:10224A00CF0B6919BD6E6BC169F16CC16AF1D89087
:10225A006A336933D8906A3369336951BE6E5AEF6B
:10226A0011F020EE01F06651D9266751DA22DE0418
:10227A00D8A442EF11F044EF11F0B5EF10F06BC1A2
:10228A0069F1030E6917693BBA506919CF0B6919CD
:10229A00BA6E6BC169F16CC16AF1D8906A3369335D
:1022AA00D8906A3369336951BB6E1200010E306EE1
:1022BA0028502910D8B464EF11F066EF11F086EFB8
:1022CA0011F028C0D9FF29C0DAFFDF30E832E8323E
:1022DA00070B2A6E080E2A6075EF11F077EF11F0DE
:1022EA0086EF11F028C0D9FF29C0DAFFDF50070BAB
:1022FA002A6E040E2A6484EF11F086EF11F0E9EFDA
:10230A0011F0000E306E0AEF12F028C0D9FF29C072
:10231A00DAFFDF30E832E832070B2A6E010E2B6E45
:10232A002A2A9AEF11F0D8902B362A2E98EF11F01C
:10233A002B50FF0A2C6E28C0D9FF29C0DAFFDF50C4
:10234A00070B2D6E2D50020DEF0EF324D96E000EE1
:10235A00F420DA6EDECF2EF0DDCF2FF02EC0D9FFBB
:10236A002FC0DAFF2C50DF160AEF12F028C0D9FF6F
:10237A0029C0DAFFDF30E832E832070B2A6E010E95
:10238A002B6E2A2ACBEF11F0D8902B362A2EC9EFC2
:10239A0011F028C0D9FF29C0DAFFDF50070B2C6ED5
:1023AA002C50020DEF0EF324D96E000EF420DA6ED3
:1023BA00DECF2DF0DDCF2EF02DC0D9FF2EC0DAFFF3
:1023CA002B50DF120AEF12F028C0D9FF29C0DAFF1A
:1023DA00DFBCF2EF11F0F5EF11F0010EF6EF11F09C
:1023EA00000E2A6E2B6A2B50000AD8B4FFEF11F0A8
:1023FA0086EF11F02A50000AD8B48AEF11F0010AC8
:10240A00D8B4BBEF11F086EF11F030501200010E74
:10241A002F6E2B502C10D8A415EF12F017EF12F0D4
:10242A001BEF12F0000E2F6EB7EF12F02BC028F040
:10243A002CC029F0FDEC1EF020EE01F02B50D9261D
:10244A002C50DA22DF50D8A42DEF12F02FEF12F021
:10245A006CEF12F049EF12F0BD50F00B0409BD6E9B
:10246A00B7EF12F0BD50F00B0509BD6EB7EF12F0D1
:10247A00BD50F00B0609BD6EB7EF12F0BD50F00B60
:10248A000709BD6EB7EF12F020EE03F02B50D926E4
:10249A002C50DA22DF502D6E2E6A2E50000AD8B444
:1024AA0059EF12F017EF12F02D50040AD8B431EF99
:1024BA0012F0010AD8B437EF12F0030AD8B43DEF8C
:1024CA0012F0010AD8B443EF12F017EF12F020EE1F
:1024DA0001F02B50D9262C50DA22DE04D8A478EF4A
:1024EA0012F07AEF12F017EF12F094EF12F0BA50DE
:1024FA00F00B0409BA6EB7EF12F0BA50F00B0509E7
:10250A00BA6EB7EF12F0BA50F00B0609BA6EB7EF0F
:10251A0012F0BA50F00B0709BA6EB7EF12F020EEBC
:10252A0003F02B50D9262C50DA22DF502D6E2E6A5A
:10253A002E50000AD8B4A4EF12F017EF12F02D5063
:10254A00040AD8B47CEF12F0010AD8B482EF12F070
:10255A00030AD8B488EF12F0010AD8B48EEF12F049
:10256A0017EF12F02F501200000E00018D6F8951E3
:10257A008A11D8A4C3EF12F0C5EF12F0C9EF12F016
:10258A00000E8E6F62EF13F089C081F08AC082F06C
:10259A0044EC1CF000018E6F010E8925816F000E3C
:1025AA008A21826F44EC1CF000018E6F000E8D6F41
:1025BA008D5189258B6F000E8A218C6F020E8B2517
:1025CA00816F000E8C21826F44EC1CF000018D2B70
:1025DA00030E8D65F3EF12F0F5EF12F0DDEF12F056
:1025EA0089C085F08AC086F0330E876F8CEC1DF0A7
:1025FA00060E00018B6F300EE82EFED78B2FFCD70C
:10260A0000F089C085F08AC086F0320E0001876F1B
:10261A008CEC1DF0060E00018B6F300EE82EFED7F3
:10262A008B2FFCD700F089C085F08AC086F0280E6F
:10263A000001876F8CEC1DF0060E00018B6F300EC7
:10264A00E82EFED78B2FFCD700F089C085F08AC010
:10265A0086F0010E0001876F8CEC1DF0060E00015A
:10266A008B6F300EE82EFED78B2FFCD700F089C077
:10267A0085F08AC086F0060E0001876F8CEC1DF08B
:10268A00060E00018B6F300EE82EFED78B2FFCD77B
:10269A0000F089C085F08AC086F00C0E0001876FB1
:1026AA008CEC1DF000018E6F060E00018B6F300E50
:1026BA00E82EFED78B2FFCD700F000018E511200B6
:1026CA00010E0001806F28502910D8B46FEF13F063
:1026DA0071EF13F091EF13F028C0D9FF29C0DAFF88
:1026EA00DF30E832E832070B2B6E080E2B6080EFE2
:1026FA0013F082EF13F091EF13F028C0D9FF29C02D
:10270A00DAFFDF50070B2B6E040E2B648FEF13F0EA
:10271A0091EF13F0F4EF13F0000E806F09EF14F04D
:10272A0028C0D9FF29C0DAFFDF30E832E832070BC8
:10273A002B6E010E2C6E2B2AA5EF13F0D8902C3697
:10274A002B2EA3EF13F028C0D9FF29C0DAFFDF50E0
:10275A00070B2D6E2D50020D900EF324D96E010E2B
:10276A00F420DA6EDECF2EF0DDCF2FF02EC0D9FFA7
:10277A002FC0DAFF2C50DF1209EF14F028C0D9FF5E
:10278A0029C0DAFFDF30E832E832070B2B6E010E80
:10279A002C6E2B2AD3EF13F0D8902C362B2ED1EF98
:1027AA0013F02C50FF0A2D6E28C0D9FF29C0DAFF7A
:1027BA00DF50070B2E6E2E50020D900EF324D96EA9
:1027CA00010EF420DA6EDECF2FF0DDCF30F02FC00D
:1027DA00D9FF30C0DAFF2D50DF1609EF14F02A5066
:1027EA002B6E2C6A2C50000AD8B4FEEF13F091EF2E
:1027FA0013F02B50000AD8B4C3EF13F0010AD8B46F
:10280A0095EF13F091EF13F0000180511200A1C06F
:10281A00D9FFA2C0DAFFDECFF6FFDDCFF7FFF86AF5
:10282A000800F550250AD8A41DEF14F01FEF14F084
:10283A008CEF14F0A1C0D9FFA2C0DAFFDE2A000E85
:10284A00DD22000E0001C76F000EC66FC6C047F03A
:10285A00C869C969A1C0D9FFA2C0DAFFDECFABF04F
:10286A00DDCFACF0ABC0F6FFACC0F7FFF86A0800EA
:10287A00F550640AD8B444EF14F046EF14F055EF5B
:10288A0014F0ABC0F6FFACC0F7FFF86A0800F550C9
:10289A00690AD8A453EF14F055EF14F083EF14F03B
:1028AA00A3C0D9FFA4C0DAFFDFCFA5F0020EDE264F
:1028BA00DFCFA6F0000EDD22A5C0D9FFA6C0DAFF41
:1028CA00DECFA7F0DDCFA8F0010EAB25A56F000E75
:1028DA00AC21A66FA1C0D9FFA2C0DAFFA5C0DEFF56
:1028EA00A6C0DDFF9FC092F0A0C093F0A7C094F0ED
:1028FA00A8C095F01EEC0FF0A1EF14F0A1C0D9FF0B
:10290A00A2C0DAFFDE2A000EDD22A1EF14F0A1C078
:10291A00D9FFA2C0DAFFDECFF6FFDDCFF7FFF86AF4
:10292A000800F550286E296A9FC02AF0A0C02BF033
:10293A00CBEC18F083EF14F0120058A2A7EF14F0B2
:10294A00CDEF15F00001D651D8A4AEEF14F0B0EFD8
:10295A0014F0CEEF14F0000E496E000EE56F000E73
:10296A00E66F000EE76F000EE86F010ED66F440E99
:10297A00136E010E146EE50E156E000E166E55ECF2
:10298A001BF0F00EBD16BD50F00B0409BD6E37EFFB
:10299A0015F0D605D8A4D4EF14F0D6EF14F006EF4C
:1029AA0015F0000EE16F000EE26F000EE36F000EED
:1029BA00E46F020ED66F440E136E010E146EE10E12
:1029CA00156E000E166E55EC1BF049C01DF01E6AFE
:1029DA001F6A206A1EC020F01DC01FF01E6A1D6AF1
:1029EA001D500001E1271E50E2231F50E32320500F
:1029FA00E423F00EBD16BD50F00B0509BD6E37EF8E
:102A0A0015F0020ED619D8A40DEF15F00FEF15F038
:102A1A0037EF15F0000EDD6F000EDE6F000EDF6F70
:102A2A00000EE06F440E136E010E146EDD0E156E6D
:102A3A00000E166E55EC1BF049C01DF01E6A1F6A87
:102A4A00206A1EC020F01DC01FF01E6A1D6A1D509C
:102A5A000001DD271E50DE231F50DF232050E02314
:102A6A00030ED66F1200010E0001936F915192115D
:102A7A00D8A442EF15F044EF15F048EF15F0000E18
:102A8A00936FCBEF15F020EE01F09151D9269251B8
:102A9A00DA22DF50D8A454EF15F056EF15F06FEF95
:102AAA0015F020EE03F09151D9269251DA220C0E3C
:102ABA00DE18D8A463EF15F065EF15F06BEF15F08B
:102ACA00BD50F00B0C09BD6E90EF15F0000E936F20
:102ADA0090EF15F020EE01F09151D9269251DA22A9
:102AEA00DE04D8A47BEF15F07DEF15F06BEF15F03F
:102AFA0020EE03F09151D9269251DA220C0EDE18FB
:102B0A00D8A48AEF15F08CEF15F06BEF15F0BA50D8
:102B1A00F00B0C09BA6E000E846F240E856FF40E4A
:102B2A00866F000E876F20EE0CF09151D9269251D4
:102B3A00DA22DF50306E3050286E296A2A6A2B6AF0
:102B4A0020EE08F09151D9269251DA22DECF2CF0EC
:102B5A00DECF2DF0DECF2EF0DECF2FF071EC1FF09E
:102B6A00020ED890283629362A362B36E82EB6EFAA
:102B7A0015F028C088F029C089F02AC08AF02BC035
:102B8A008BF002EC1BF000018405CB6E935112000E
:102B9A000001D651D8A4D4EF15F0D6EF15F0F4EF12
:102BAA0015F0000E496E000EE56F000EE66F000E7E
:102BBA00E76F000EE86F010ED66F440E016E010E2C
:102BCA00026EE50E036E000E046EA8EC1BF0F00E0A
:102BDA00BD16BD50F00B0409BD6E5DEF16F0D605AB
:102BEA00D8A4FAEF15F0FCEF15F02CEF16F0000E52
:102BFA00E16F000EE26F000EE36F000EE46F020E4B
:102C0A00D66F440E016E010E026EE10E036E000EC7
:102C1A00046EA8EC1BF049C00BF00C6A0D6A0E6A30
:102C2A000CC00EF00BC00DF00C6A0B6A0B500001C1
:102C3A00E1270C50E2230D50E3230E50E423F00E5B
:102C4A00BD16BD50F00B0509BD6E5DEF16F0020E04
:102C5A00D619D8A433EF16F035EF16F05DEF16F05B
:102C6A00000EDD6F000EDE6F000EDF6F000EE06FEC
:102C7A00440E016E010E026EDD0E036E000E046E2E
:102C8A00A8EC1BF049C00BF00C6A0D6A0E6A0CC066
:102C9A000EF00BC00DF00C6A0B6A0B500001DD2719
:102CAA000C50DE230D50DF230E50E023030ED66FA7
:102CBA0012000101603561350001C56FC551D8A404
:102CCA0069EF16F06BEF16F076EF16F0000E0101C1
:102CDA005E6F000E5F6F000E606F000E616FECEFAB
:102CEA0016F05EC162F15FC163F160C164F161C156
:102CFA0065F1200E87EF16F00101D8906533643331
:102D0A0063336233E82E81EF16F062510001C46F1B
:102D1A000101608FFF0E5E17FF0E5F17FF0E60172F
:102D2A00000E6117960E0001C55FC5BFA1EF16F030
:102D3A009FEF16F0B9EF16F0C551800A970FD8B079
:102D4A00A9EF16F0ABEF16F0ADEF16F06BEF16F039
:102D5A000101D890613360335F335E330001C53FB0
:102D6A00ADEF16F0D3EF16F01F0EC565BFEF16F0E4
:102D7A00C1EF16F0CBEF16F06BEF16F00101D89009
:102D8A005E375F37603761370001C507C551D8A480
:102D9A00D1EF16F0D3EF16F0C3EF16F0C451D8B442
:102DAA00D9EF16F0DBEF16F0E4EF16F00101611F20
:102DBA00601F5F1F5E6D000E5F23602361235EC18B
:102DCA005EF15FC15FF160C160F161C161F1120042
:102DDA00010E0001986F94519511D8A4F7EF16F0DF
:102DEA00F9EF16F0FBEF16F068EF17F020EE01F09E
:102DFA009451D9269551DA22DF50D8A407EF17F05B
:102E0A0009EF17F00DEF17F0F00EBD163BEF17F0B4
:102E1A0020EE01F09451D9269551DA22DE04D8A485
:102E2A0019EF17F01BEF17F01FEF17F0F00EBA1695
:102E3A003BEF17F0000E986F3BEF17F094C02BF0A2
:102E4A0095C02CF00CEC12F00001981756EF17F011
:102E5A0094C091F095C092F038EC15F000019817E3
:102E6A0056EF17F0000E986F56EF17F020EE02F0AB
:102E7A009451D9269551DA22DF50966F976B975164
:102E8A00000AD8B44BEF17F037EF17F09651000A43
:102E9A00D8B423EF17F0020AD8B42DEF17F037EFA2
:102EAA0017F0040E9425816F000E9521826F44EC71
:102EBA001CF00001981794C02BF095C02CF049EC37
:102ECA001EF0000198171200F90E00018F6F000E14
:102EDA00906F010E916F010E926F390E936F100E63
:102EEA00946F38EC1FF0070E0001966F170E956F5E
:102EFA006A0EE82EFED7952FFCD7962FFAD700F048
:102F0A00F90E00018F6F000E906F020E916F010E85
:102F1A00926F4B0E936F100E946F38EC1FF0070EE2
:102F2A000001966F170E956F6A0EE82EFED7952F41
:102F3A00FCD7962FFAD700F0F90E00018F6F000E1A
:102F4A00906F030E916F010E926F110E936F100E18
:102F5A00946F38EC1FF0070E0001966F170E956FED
:102F6A006A0EE82EFED7952FFCD7962FFAD700F0D7
:102F7A00F90E00018F6F000E906F040E916F010E13
:102F8A00926F260E936F100E946F38EC1FF0290E75
:102F9A000001966F960E956F7F0EE82EFED7952F3D
:102FAA00FCD7962FFAD7F90E0001856F000E866FAF
:102FBA00010E876F8CEC1DF01200010E2E6E2A5046
:102FCA002B10D8A4EBEF17F0EDEF17F0F1EF17F095
:102FDA00000E2E6E57EF18F0CD9020EE05F02A5015
:102FEA00D9262B50DA22DF50030B2C6E2C3ACD5007
:102FFA002C18CF0B2C18CD6E2AC028F02BC029F024
:10300A004DEC1DF020EE03F02A50D9262B50DA227F
:10301A00DECF2CF0DDCF2DF02DC02CF02D6A2C50F8
:10302A00CF6E20EE03F02A50D9262B50DA22DF5039
:10303A00CE6E20EE03F02A50D9262B50DA22DECFAC
:10304A0033F0DDCF34F09D809E902AC0D9FF2BC08B
:10305A00DAFFDECF35F0DDCF36F0D08E20EE02F08B
:10306A002A50D9262B50DA22DE04D8A43FEF18F0D2
:10307A0041EF18F045EF18F09F80F28E56EF18F0E6
:10308A0020EE02F02A50D9262B50DA22DF50D8A49B
:10309A0051EF18F053EF18F056EF18F09F90F28E98
:1030AA00F28CCD802E50120021EE7DF0040EDE6AE5
:1030BA00E806FDE2000E0101826F000E836F000E2A
:1030CA00846F000E856FF90E00018F6F000E906FEE
:1030DA00010E916F010E926F6C0E936F100E946F2A
:1030EA0038EC1FF078C1BDF079C1BEF07AC1BFF0EB
:1030FA007BC1C0F07D0E0001C16F010EC26F30ECC2
:10310A0019F0F90E0001896F000E8A6F7D0E8B6F20
:10311A00010E8C6F8CEC1CF0F90E0001896F000E09
:10312A008A6F7A0E8B6F100E8C6F8CEC1CF0F90E76
:10313A0000018F6F000E906F020E916F010E926F59
:10314A005D0E936F100E946F38EC1FF0820E000123
:10315A00BD6F010EBE6F01017C51F5EC19F0F90E3D
:10316A000001896F000E8A6F820E8B6F010E8C6FC1
:10317A008CEC1CF0F90E0001896F000E8A6F800E2C
:10318A008B6F100E8C6F8CEC1CF012002A502B10D7
:10319A00D8B4D2EF18F0D4EF18F0DDEF18F02A50B7
:1031AA002B10D8A4DBEF18F0DDEF18F0E2EF18F0DF
:1031BA00285019EC22F02FEF19F020EE0AF02A50CD
:1031CA00D9262B50DA22DE50DE10D8B4EFEF18F0F1
:1031DA00F1EF18F00CEF19F020EE0AF02A50D92678
:1031EA002B50DA2210EE03F02A50E1262B50E2226D
:1031FA00DE50E65CE650800A306EDE50800A3058B7
:10320A00D8B00AEF19F00CEF19F02FEF19F020EEF1
:10321A0003F02A50D9262B50DA22DECF2CF0DDCF4C
:10322A002DF02AC0D9FF2BC0DAFFDECF2EF0DDCF7A
:10323A002FF02C502E24D96E2D502F20DA6E28C054
:10324A00DFFF20EE03F02A50D9262B50DA22DE2A9D
:10325A00000EDD22120021EE6CF00A0EDE6AE8068C
:10326A00FDE2000E0101776F0001C151C211D8A41D
:10327A0041EF19F043EF19F045EF19F092EF19F009
:10328A00C1C028F0C2C029F0000E2B6E000E2A6EB3
:10329A00000E2D6E0B0E2C6EEBEC0FF06C0E000177
:1032AA00B56F010EB66F850EB76F100EB86FBDC041
:1032BA00B9F0BEC0BAF0BFC0BBF0C0C0BCF0DAEC17
:1032CA001FF07BEF19F06C0E7725D96EDA6A010EC2
:1032DA00DA2277510001C125E16E0101000E0001D9
:1032EA00C221E26EDFCFE7FF0101772B6C0E0101ED
:1032FA007725D96EDA6A010EDA22DF50D8A488EF70
:10330A0019F08AEF19F068EF19F0000120EE0AF0BF
:10331A00C151D926C251DA22DF6A1200000E2D6E7F
:10332A002BBE9CEF19F09AEF19F0A2EF19F02A6C54
:10333A002B1ED8B02B2A010E2D6E29BEA9EF19F02B
:10334A00A7EF19F0AFEF19F0286C291ED8B0292A77
:10335A00010E2D1A000E2F6E000E2E6E2A502B1003
:10336A00D8B4BAEF19F0BCEF19F0E4EF19F0010E76
:10337A002C6EC4EF19F0D8902A362B362C2A2BAE95
:10338A00C9EF19F0CBEF19F0C0EF19F0D8902E362B
:10339A002F362A50285C2B502958D8A0D7EF19F07D
:1033AA00D9EF19F0DEEF19F02A50285E2B50295A6E
:1033BA002E80D8902B322A322C2ECBEF19F02D509A
:1033CA00D8B4EAEF19F0ECEF19F0F0EF19F02E6C1F
:1033DA002F1ED8B02F2A2EC028F02FC029F0120095
:1033EA000001C36F000E0001BF6F000EC06F000E18
:1033FA00C16F000EC26F000EC46FBD51BE11D8A4BA
:10340A0009EF1AF00BEF1AF00DEF1AF050EF1AF05D
:10341A00BDC028F0BEC029F0000E2B6E000E2A6E29
:10342A00000E2D6E040E2C6EEBEC0FF0BF0E000199
:10343A00B56F000EB66F850EB76F100EB86FC3C0AA
:10344A00B9F0BA6BDAEC1FF03AEF1AF0BF0EC425E6
:10345A00D96EDA6A000EDA22C451BD25E16E000E79
:10346A00BE21E26EDFCFE7FFC42BBF0E0001C425E9
:10347A00D96EDA6A000EDA22DF50D8A447EF1AF0C2
:10348A0049EF1AF02BEF1AF020EE03F0BD51D926BE
:10349A00BE51DA22DF6A1200000189518A11D8A4CA
:1034AA0059EF1AF05BEF1AF05DEF1AF0A9EF1AF074
:1034BA008C078CEF1AF089C085F08AC086F08C518F
:1034CA00800F876F8CEC1DF0A9EF1AF089C085F088
:1034DA008AC086F08C51C00F876F8CEC1DF0A9EF63
:1034EA001AF089C085F08AC086F08C51940F876FD4
:1034FA008CEC1DF0A9EF1AF089C085F08AC086F01D
:10350A008C51D40F876F8CEC1DF0A9EF1AF08B51F8
:10351A008D6F8E6B8E51000AD8B496EF1AF05BEF5E
:10352A001AF08D51010AD8B460EF1AF0030AD8B420
:10353A006BEF1AF0010AD8B476EF1AF0070AD8B47A
:10354A0081EF1AF05BEF1AF01200000E2D6E29BE01
:10355A00B3EF1AF0B1EF1AF0B9EF1AF0286C291E7E
:10356A00D8B0292A010E2D6E2BBEC0EF1AF0BEEF7D
:10357A001AF0C4EF1AF02A6C2B1ED8B02B2A2A5044
:10358A002B10D8B4CBEF1AF0CDEF1AF0F1EF1AF0F6
:10359A00010E2C6ED5EF1AF0D8902A362B362C2A2B
:1035AA002BAEDAEF1AF0DCEF1AF0D1EF1AF02A504C
:1035BA00285C2B502958D8A0E5EF1AF0E7EF1AF04B
:1035CA00EBEF1AF02A50285E2B50295AD8902B324A
:1035DA002A322C2EDCEF1AF02D50D8B4F7EF1AF05D
:1035EA00F9EF1AF0FDEF1AF0286C291ED8B0292A33
:1035FA0028C028F029C029F01200000E00018C6FA3
:10360A00000E8D6F000E8E6F000E8F6F885189111C
:10361A008A118B11D8B414EF1BF016EF1BF04CEF84
:10362A001BF0010E906F20EF1BF0D8908837893776
:10363A008A378B37902B8BAF25EF1BF027EF1BF0C8
:10364A001AEF1BF0D8908C378D378E378F37885109
:10365A00845D895185598A5186598B518759D8A0D9
:10366A0039EF1BF03BEF1BF044EF1BF08851845FEE
:10367A008951855B8A51865B8B51875B8C81D89097
:10368A008B338A3389338833902F27EF1BF08CC012
:10369A0084F08DC085F08EC086F08FC087F012004E
:1036AA003FC01BF040C01CF015501610D8B460EF94
:1036BA001BF062EF1BF06BEF1BF013501410D8A431
:1036CA0069EF1BF06BEF1BF06DEF1BF0A7EF1BF020
:1036DA0020EE01F01350D9261450DA22DF50D8A474
:1036EA0079EF1BF07BEF1BF081EF1BF0BECF1BF0D5
:1036FA00BFCF1CF095EF1BF020EE01F01350D92636
:10370A001450DA22DE04D8A48DEF1BF08FEF1BF0E1
:10371A0095EF1BF0BBCF1BF0BCCF1CF095EF1BF055
:10372A001B50176E1C50186E196A1A6A15C0D9FFF9
:10373A0016C0DAFF17C0DEFF18C0DEFF19C0DEFFB1
:10374A001AC0DEFF12003FC009F040C00AF0035061
:10375A000410D8B4B3EF1BF0B5EF1BF0BEEF1BF0AB
:10376A0001500210D8A4BCEF1BF0BEEF1BF0C0EF53
:10377A001BF0FAEF1BF020EE01F00150D92602509F
:10378A00DA22DF50D8A4CCEF1BF0CEEF1BF0D4EF37
:10379A001BF0BECF09F0BFCF0AF0E8EF1BF020EE16
:1037AA0001F00150D9260250DA22DE04D8A4E0EF53
:1037BA001BF0E2EF1BF0E8EF1BF0BBCF09F0BCCF28
:1037CA000AF0E8EF1BF00950056E0A50066E076A08
:1037DA00086A03C0D9FF04C0DAFF05C0DEFF06C0CD
:1037EA00DEFF07C0DEFF08C0DEFF120000018151C4
:1037FA008211D8A403EF1CF005EF1CF009EF1CF0AE
:10380A00000E846F42EF1CF0020E8125286E000E16
:10381A008221296E8351010B2A6E65EC13F0000197
:10382A00846F030E8125286E000E8221296ED8909E
:10383A008331010B2A6E65EC13F00001846F040ECC
:10384A008125286E000E8221296E8341E8423F0BB2
:10385A00010B2A6E65EC13F00001846F050E8125B9
:10386A00286E000E8221296E8339E8461F0B010B50
:10387A002A6E65EC13F00001846F84511200000176
:10388A0081518211D8B44CEF1CF04EEF1CF06EEF50
:10389A001CF081C0D9FF82C0DAFFDF30E832E8329B
:1038AA00070B836F080E83615DEF1CF05FEF1CF05E
:1038BA006EEF1CF081C0D9FF82C0DAFFDF50070B20
:1038CA00836F040E83656CEF1CF06EEF1CF072EFD1
:1038DA001CF0000E846F8AEF1CF081C028F082C0B1
:1038EA0029F05BEC11F00001846F81C028F082C0DE
:1038FA0029F081C0D9FF82C0DAFF000EDFBE010EB7
:10390A002A6E65EC13F00001846F845112000001E5
:10391A0089518A11D8A494EF1CF096EF1CF0B4EFE9
:10392A001CF0CDEF1CF089C085F08AC086F08BC0F0
:10393A00F6FF8CC0F7FF000EF86E0F0EF76403D087
:10394A000800F55005D0F6CFE9FFF7CFEAFFEF50B0
:10395A000001876FCBEC1DF000018B4B8C2B8BC0C9
:10396A00F6FF8CC0F7FF000EF86E0F0EF76403D057
:10397A000800F55005D0F6CFE9FFF7CFEAFFEF5080
:10398A000009D8A4CBEF1CF0CDEF1CF098EF1CF087
:10399A001200580EF66E430EF76E000EF86E01EE28
:1039AA0086F010EE14F00900F5CFEEFFE550E15075
:1039BA00FAE17E0EF66E430EF76E000EF86E00EE1A
:1039CA00EFF010EE10F00900F5CFEEFFE550E150F0
:1039DA00FAE1340EF66E440EF76E000EF86E090028
:1039EA00F5CF57F001EE00F05E0EEE6AE806FDE153
:1039FA0000EEC6F0290EEE6AE806FDE100EE31F0AF
:103A0A00260EEE6AE806FDE1589058920001A8EFEA
:103A1A001FF0010E2B6E28502910D8A417EF1DF0A5
:103A2A0019EF1DF01DEF1DF0000E2B6E4BEF1DF070
:103A3A00CA9420EE01F02850D9262950DA22DF3024
:103A4A00E8320F0B2A6E2A462A462A46CA502A18F4
:103A5A00870B2A18CA6E20EE01F02850D926295061
:103A6A00DA22DF50030B2A6ECA502A18FC0B2A18D6
:103A7A00CA6E28C0D9FF29C0DAFFDF50CC6E28C031
:103A8A00D9FF29C0DAFFDF504A6ECA842B501200D0
:103A9A0020EE05F02850D9262950DA22DFB458EF53
:103AAA001DF05AEF1DF05DEF1DF0CD928BEF1DF06A
:103ABA0020EE05F02850D9262950DA22DFA468EF33
:103ACA001DF06AEF1DF08BEF1DF0CD8220EE05F0A0
:103ADA002850D9262950DA22DFB676EF1DF078EF82
:103AEA001DF07BEF1DF0CD948BEF1DF020EE05F05D
:103AFA002850D9262950DA22DFA686EF1DF088EF52
:103B0A001DF08BEF1DF0CD848BEF1DF0120000012C
:103B1A0085518611D8A494EF1DF096EF1DF09AEF07
:103B2A001DF0000E886FC9EF1DF085C028F086C011
:103B3A0029F0000E2A6E65EC13F00001886F85C02B
:103B4A0081F086C082F087390F0B836FFBEC1BF084
:103B5A000001886F85C081F086C082F006EC20F0F3
:103B6A000001886F85C081F086C082F087C083F02B
:103B7A00FBEC1BF00001886F85C081F086C082F0E3
:103B8A0006EC20F00001886F88511200000185516F
:103B9A008611D8A4D3EF1DF0D5EF1DF0D9EF1DF093
:103BAA00000E886F08EF1EF085C028F086C029F045
:103BBA00010E2A6E65EC13F00001886F85C081F052
:103BCA0086C082F087390F0B836FFBEC1BF0000174
:103BDA00886F85C081F086C082F006EC20F0000173
:103BEA00886F85C081F086C082F087C083F0FBECC5
:103BFA001BF00001886F85C081F086C082F006EC58
:103C0A0020F00001886F8851120000018CBF10EF6C
:103C1A001EF012EF1EF018EF1EF08BC090F08CC051
:103C2A0091F01CEF1EF0000E916F000E906F000EC7
:103C3A008F6F000E8E6F2FEF1EF0000E296E200E72
:103C4A00286E87C02AF088C02BF0CBEC18F0000150
:103C5A008E4B8F2B90518E5D8F51800A8D6F9151B3
:103C6A00800A8D59D8A03CEF1EF03EEF1EF022EFDD
:103C7A001EF089C080F08AC081F087C082F088C0B7
:103C8A0083F05BEC20F01200010E2F6E2B502C10EB
:103C9A00D8A452EF1EF054EF1EF068EF1EF0000E8B
:103CAA002F6E83EF1EF02BC028F02CC029F0C1EC38
:103CBA001EF083EF1EF02BC028F02CC029F085ECF3
:103CCA001EF083EF1EF020EE01F02B50D9262C5067
:103CDA00DA22DF502D6E2E6A2E50000AD8B478EF01
:103CEA001EF054EF1EF02D50000AD8B458EF1EF003
:103CFA00010AD8B460EF1EF054EF1EF02F501200E4
:103D0A0028502910D8A48CEF1EF08EEF1EF090EFE9
:103D1A001EF0C0EF1EF0A080A19020EE05F0285002
:103D2A00D9262950DA22DECF41F0DDCF42F0D08EFB
:103D3A0020EE07F02850D9262950DA22DE04D8A42A
:103D4A00A9EF1EF0ABEF1EF0AFEF1EF0A280F28ECD
:103D5A00C0EF1EF020EE07F02850D9262950DA22AB
:103D6A00DF50D8A4BBEF1EF0BDEF1EF08EEF1EF0A1
:103D7A00A290F28EF28C120028502910D8A4C8EF13
:103D8A001EF0CAEF1EF0CCEF1EF0FCEF1EF09D8471
:103D9A009E9420EE05F02850D9262950DA22DECF4B
:103DAA0043F0DDCF44F0D08E20EE07F02850D9261C
:103DBA002950DA22DE04D8A4E5EF1EF0E7EF1EF060
:103DCA00EBEF1EF09F84F28EFCEF1EF020EE07F060
:103DDA002850D9262950DA22DF50D8A4F7EF1EF04E
:103DEA00F9EF1EF0CAEF1EF09F94F28EF28C1200C9
:103DFA0028502910D8A404EF1FF006EF1FF008EF8F
:103E0A001FF037EF1FF028C0D9FF29C0DAFFDF50B3
:103E1A00D8A412EF1FF014EF1FF018EF1FF0B1969D
:103E2A00B19C37EF1FF028C0D9FF29C0DAFFDE04A2
:103E3A00D8A422EF1FF024EF1FF028EF1FF0B1865D
:103E4A00B19C37EF1FF028C0D9FF29C0DAFF020E54
:103E5A00DE18D8A433EF1FF035EF1FF006EF1FF07E
:103E6A00B196B18C120000018F519011D8A440EF85
:103E7A001FF042EF1FF044EF1FF070EF1FF08FC0EA
:103E8A0089F090C08AF091C08BF092C08CF051EC0E
:103E9A001AF061EF1FF08FC085F090C086F093C0D2
:103EAA00F6FF94C0F7FFF86A0800F5CF87F0CBEC6D
:103EBA001DF00001934B942B93C0F6FF94C0F7FFBB
:103ECA00F86A0800F5500009D8A46EEF1FF070EFE9
:103EDA001FF050EF1FF01200000E0001806F000E5D
:103EEA00816F000E826F000E836F28A07FEF1FF094
:103EFA0081EF1FF08AEF1FF02C50000180272D5010
:103F0A0081232E5082232F508323D8902C362D368E
:103F1A002E362F36D8902B322A3229322832285080
:103F2A0029102A102B10D8A49DEF1FF09FEF1FF025
:103F3A007AEF1FF080C028F081C029F082C02AF0F1
:103F4A0083C02BF01200EEEC21F069EC17F0510E51
:103F5A000101666F010E676F060E686FA7EC10F01D
:103F6A00100E0101666F000E676F000E686F000E7B
:103F7A00696F010E6A6FE90E6B6F000E6C6F560E59
:103F8A006D6F000E6E6F51EC0DF0E9C078F1EAC06A
:103F9A0079F1EBC07AF1ECC07BF156C07CF159ECB7
:103FAA0018F0B5EF1FF030EF01F0B90E01015E6FA6
:103FBA00000E5F6FB5C060F1B6C061F1000E646FAC
:103FCA00000E636F000E6B6F000E6A6F600E0001C9
:103FDA00AD6F010EAE6FB7C0AFF0B8C0B0F05E0EF5
:103FEA00B16F010EB26F31EC20F001016351000193
:103FFA00B525D96E010164510001B621DA6EDF6A76
:10400A001200000181518211D8A40EEF20F010EFA6
:10401A0020F014EF20F0000E836F2FEF20F0010E36
:10402A008125286E000E8221296E010E2A6E65EC0A
:10403A0013F0060EE82EFED700D0010E00018125EE
:10404A00286E000E8221296E000E2A6E65EC13F08E
:10405A000001836F83511200AFC0B3F0B0C0B4F057
:10406A0046EF20F0ADC09FF0AEC0A0F0B30E000145
:10407A00A16F000EA26FB1C0A3F0B2C0A4F00CEC05
:10408A0014F0B3C0F6FFB4C0F7FFF86A0800F550A1
:10409A000009D8A453EF20F055EF20F037EF20F0B5
:1040AA00000E0001AE6F000EAD6F1200000E00018F
:1040BA00866F000E856F6EEF20F084C028F0296AA3
:1040CA0082C02AF083C02BF0CBEC18F00001854B9C
:1040DA00862B85518025D96E86518121DA6EDF5073
:1040EA00846F8451D8A47CEF20F07EEF20F062EF39
:1040FA0020F01200010E0101526F020E536F0C0ED6
:10410A00546F559D5551F80B0209556F5551C70B00
:10411A000809556F100E5D6FE80E596F030E5A6F3E
:10412A00000E5B6F000E5C6F510E0001946F010E62
:10413A00956FEDEC16F012002FBEAEEF20F02F5067
:10414A0006E12E04D8B0ACEF20F0AEEF20F0BDEFC0
:10415A0020F02EC080F02FC081F00001801F811F47
:10416A00804B812B80C02EF081C02FF0C1EF20F050
:10417A002EC02EF02FC02FF01200010E0101446F45
:10418A00000E456F000E466F050E476F488D485169
:10419A00F80B0209486F4851C70B1009486F440EC3
:1041AA00496F290E4A6F440E0001946F010E956FF4
:1041BA00EDEC16F012003450CF6E33C0CEFF9E9055
:1041CA0035503610D8B4ECEF20F0EEEF20F0FAEFCD
:1041DA0020F002D8FAEF20F00500FA6E3550FD6E95
:1041EA003650FE6EFF6AFA50120012003450CF6E3B
:1041FA0033C0CEFF9E9035503610D8B407EF21F069
:10420A0009EF21F015EF21F002D815EF21F0050092
:10421A00FA6E3550FD6E3650FE6EFF6AFA50120085
:10422A001200A19041504210D8B41EEF21F020EFA5
:10423A0021F02CEF21F002D82CEF21F00500FA6EC4
:10424A004150FD6E4250FE6EFF6AFA501200120093
:10425A009E9443504410D8B435EF21F037EF21F043
:10426A0043EF21F002D843EF21F00500FA6E4350E4
:10427A00FD6E4450FE6EFF6AFA5012001200A190C1
:10428A0041504210D8B44CEF21F04EEF21F05AEFD2
:10429A0021F002D85AEF21F00500FA6E4150FD6E66
:1042AA004250FE6EFF6AFA50120012009E9443506A
:1042BA004410D8B463EF21F065EF21F071EF21F0DB
:1042CA0002D871EF21F00500FA6E4350FD6E44509A
:1042DA00FE6EFF6AFA5012001200000E0001DB6F38
:1042EA00000EDA6FDC95DC9BFC0EDC179E0ED76F96
:1042FA00430ED86FD70E2A6E000E2B6EE2EC17F023
:10430A000001FF6F1200000E0001ED6FEE51C30BAA
:10431A000409EE6FEE51FC0B0209EE6FED0E286EEA
:10432A00000E296E0EEC1DF00001FF6F12002850DE
:10433A002910D8A4A3EF21F0A5EF21F0A7EF21F0CF
:10434A00ABEF21F02B50CF6E2AC0CEFF1200800FA8
:10435A00810F820F830F840F890F8A0F8B0F8C0FA7
:10436A008D0F88EC21F07FEC20F072EC21F0C2EC8A
:10437A0020F01200920F930F940F950F960F030BD4
:10438A00131B232BF90E0001896F000E8A6FB9ECFB
:10439A0012F0120058A2D4EF21F007EF22F0492AB6
:1043AA0012003250B36E31C0B2FFA19212003850DF
:1043BA00D76E37C0D6FFF29412003250B36E31C0B6
:1043CA00B2FFA19212003850D76E37C0D6FFF294CE
:1043DA001200B6EC21F0C7EC21F012004AC0CCFF63
:1043EA0012004AC0CCFF1200F2901200F2901200A2
:1043FA00F2901200F2901200F0921200F090120065
:10440A009E9C1200492A1200F2901200F2901200A9
:10441A00F2901200F2901200F0921200F090120044
:0B442A009E9C1200F292120012007122
:020000040030CA
:0E000000FF02091EFF8181FF0FC00FE00F40BD
:00000001FF
